{"abi":[{"type":"constructor","inputs":[{"name":"_entryPoint","type":"address","internalType":"address"},{"name":"_token","type":"address","internalType":"address"},{"name":"_tokenOracle","type":"address","internalType":"address"},{"name":"_nativeOracle","type":"address","internalType":"address"}],"stateMutability":"nonpayable"},{"type":"receive","stateMutability":"payable"},{"type":"function","name":"MIN_STAKE","inputs":[],"outputs":[{"name":"","type":"uint256","internalType":"uint256"}],"stateMutability":"view"},{"type":"function","name":"PRECISION","inputs":[],"outputs":[{"name":"","type":"uint256","internalType":"uint256"}],"stateMutability":"view"},{"type":"function","name":"UNSTAKE_DELAY","inputs":[],"outputs":[{"name":"","type":"uint256","internalType":"uint256"}],"stateMutability":"view"},{"type":"function","name":"addStake","inputs":[],"outputs":[],"stateMutability":"payable"},{"type":"function","name":"calculateTokenAmount","inputs":[{"name":"gasCost","type":"uint256","internalType":"uint256"}],"outputs":[{"name":"","type":"uint256","internalType":"uint256"}],"stateMutability":"view"},{"type":"function","name":"deposit","inputs":[],"outputs":[],"stateMutability":"payable"},{"type":"function","name":"entryPoint","inputs":[],"outputs":[{"name":"","type":"address","internalType":"contract IEntryPoint"}],"stateMutability":"view"},{"type":"function","name":"getNativePrice","inputs":[],"outputs":[{"name":"","type":"uint256","internalType":"uint256"}],"stateMutability":"view"},{"type":"function","name":"getTokenPrice","inputs":[],"outputs":[{"name":"","type":"uint256","internalType":"uint256"}],"stateMutability":"view"},{"type":"function","name":"lastUnstakeTime","inputs":[{"name":"","type":"address","internalType":"address"}],"outputs":[{"name":"","type":"uint256","internalType":"uint256"}],"stateMutability":"view"},{"type":"function","name":"nativeOracle","inputs":[],"outputs":[{"name":"","type":"address","internalType":"contract AggregatorV3Interface"}],"stateMutability":"view"},{"type":"function","name":"owner","inputs":[],"outputs":[{"name":"","type":"address","internalType":"address"}],"stateMutability":"view"},{"type":"function","name":"postOp","inputs":[{"name":"mode","type":"uint8","internalType":"enum PostOpMode"},{"name":"context","type":"bytes","internalType":"bytes"},{"name":"actualGasCost","type":"uint256","internalType":"uint256"}],"outputs":[],"stateMutability":"nonpayable"},{"type":"function","name":"renounceOwnership","inputs":[],"outputs":[],"stateMutability":"nonpayable"},{"type":"function","name":"stake","inputs":[{"name":"","type":"address","internalType":"address"}],"outputs":[{"name":"","type":"uint256","internalType":"uint256"}],"stateMutability":"view"},{"type":"function","name":"token","inputs":[],"outputs":[{"name":"","type":"address","internalType":"contract IERC20"}],"stateMutability":"view"},{"type":"function","name":"tokenOracle","inputs":[],"outputs":[{"name":"","type":"address","internalType":"contract AggregatorV3Interface"}],"stateMutability":"view"},{"type":"function","name":"transferOwnership","inputs":[{"name":"newOwner","type":"address","internalType":"address"}],"outputs":[],"stateMutability":"nonpayable"},{"type":"function","name":"unlockStake","inputs":[],"outputs":[],"stateMutability":"nonpayable"},{"type":"function","name":"unstakeDelaySec","inputs":[{"name":"","type":"address","internalType":"address"}],"outputs":[{"name":"","type":"uint256","internalType":"uint256"}],"stateMutability":"view"},{"type":"function","name":"validatePaymasterUserOp","inputs":[{"name":"userOp","type":"tuple","internalType":"struct UserOperation","components":[{"name":"sender","type":"address","internalType":"address"},{"name":"nonce","type":"uint256","internalType":"uint256"},{"name":"initCode","type":"bytes","internalType":"bytes"},{"name":"callData","type":"bytes","internalType":"bytes"},{"name":"callGasLimit","type":"uint256","internalType":"uint256"},{"name":"verificationGasLimit","type":"uint256","internalType":"uint256"},{"name":"preVerificationGas","type":"uint256","internalType":"uint256"},{"name":"maxFeePerGas","type":"uint256","internalType":"uint256"},{"name":"maxPriorityFeePerGas","type":"uint256","internalType":"uint256"},{"name":"paymasterAndData","type":"bytes","internalType":"bytes"},{"name":"signature","type":"bytes","internalType":"bytes"}]},{"name":"userOpHash","type":"bytes32","internalType":"bytes32"},{"name":"maxCost","type":"uint256","internalType":"uint256"}],"outputs":[{"name":"context","type":"bytes","internalType":"bytes"},{"name":"validationData","type":"uint256","internalType":"uint256"}],"stateMutability":"view"},{"type":"function","name":"withdrawStake","inputs":[{"name":"withdrawAddress","type":"address","internalType":"address payable"}],"outputs":[],"stateMutability":"nonpayable"},{"type":"function","name":"withdrawTo","inputs":[{"name":"withdrawAddress","type":"address","internalType":"address payable"},{"name":"amount","type":"uint256","internalType":"uint256"}],"outputs":[],"stateMutability":"nonpayable"},{"type":"event","name":"OwnershipTransferred","inputs":[{"name":"previousOwner","type":"address","indexed":true,"internalType":"address"},{"name":"newOwner","type":"address","indexed":true,"internalType":"address"}],"anonymous":false},{"type":"event","name":"StakeAdded","inputs":[{"name":"account","type":"address","indexed":true,"internalType":"address"},{"name":"amount","type":"uint256","indexed":false,"internalType":"uint256"}],"anonymous":false},{"type":"event","name":"StakeUnlocked","inputs":[{"name":"account","type":"address","indexed":true,"internalType":"address"},{"name":"unlockTime","type":"uint256","indexed":false,"internalType":"uint256"}],"anonymous":false},{"type":"event","name":"StakeWithdrawn","inputs":[{"name":"account","type":"address","indexed":true,"internalType":"address"},{"name":"amount","type":"uint256","indexed":false,"internalType":"uint256"}],"anonymous":false},{"type":"event","name":"TokensCharged","inputs":[{"name":"account","type":"address","indexed":true,"internalType":"address"},{"name":"tokenAmount","type":"uint256","indexed":false,"internalType":"uint256"},{"name":"nativeAmount","type":"uint256","indexed":false,"internalType":"uint256"}],"anonymous":false}],"bytecode":{"object":"0x6101006040523480156200001257600080fd5b5060405162001bb538038062001bb58339810160408190526200003591620000df565b620000403362000072565b600180556200004f3362000072565b6001600160a01b0393841660805291831660a052821660c0521660e0526200013c565b600080546001600160a01b038381166001600160a01b0319831681178455604051919092169283917f8be0079c531659141344cd1fd0a4f28419497f9722a3daafe3b4186f6b6457e09190a35050565b80516001600160a01b0381168114620000da57600080fd5b919050565b60008060008060808587031215620000f657600080fd5b6200010185620000c2565b93506200011160208601620000c2565b92506200012160408601620000c2565b91506200013160608601620000c2565b905092959194509250565b60805160a05160c05160e051611a07620001ae60003960008181610162015261047701526000818161026f0152610595015260008181610450015281816107a90152610de9015260008181610332015281816105300152818161073201528181610aa20152610b920152611a076000f3fe6080604052600436106101445760003560e01c8063a9a23409116100b6578063cb1c2b5c1161006f578063cb1c2b5c146103b6578063d0e30db0146103d1578063e35e5d84146103d9578063f2fde38b146103f0578063f465c77e14610410578063fc0c546a1461043e57600080fd5b8063a9a23409146102e4578063aaf5eb6814610304578063b0d691fe14610320578063bb9fe6bf14610354578063c23a5cea14610369578063c47e22c71461038957600080fd5b80634b94f50e116101085780634b94f50e146102405780635a627dbc146102555780636c5ec25c1461025d578063715018a6146102915780638da5cb5b146102a6578063a24bcf46146102c457600080fd5b8063127fec131461015057806317430c9e146101a1578063205c2878146101c457806326476204146101e6578063331e03a81461021357600080fd5b3661014b57005b600080fd5b34801561015c57600080fd5b506101847f000000000000000000000000000000000000000000000000000000000000000081565b6040516001600160a01b0390911681526020015b60405180910390f35b3480156101ad57600080fd5b506101b6610472565b604051908152602001610198565b3480156101d057600080fd5b506101e46101df36600461152b565b610502565b005b3480156101f257600080fd5b506101b6610201366004611557565b60026020526000908152604090205481565b34801561021f57600080fd5b506101b661022e366004611557565b60046020526000908152604090205481565b34801561024c57600080fd5b506101b6610590565b6101e46105f1565b34801561026957600080fd5b506101847f000000000000000000000000000000000000000000000000000000000000000081565b34801561029d57600080fd5b506101e461064d565b3480156102b257600080fd5b506000546001600160a01b0316610184565b3480156102d057600080fd5b506101b66102df36600461157b565b610661565b3480156102f057600080fd5b506101e46102ff366004611594565b610727565b34801561031057600080fd5b506101b6670de0b6b3a764000081565b34801561032c57600080fd5b506101847f000000000000000000000000000000000000000000000000000000000000000081565b34801561036057600080fd5b506101e461081d565b34801561037557600080fd5b506101e4610384366004611557565b6108ef565b34801561039557600080fd5b506101b66103a4366004611557565b60036020526000908152604090205481565b3480156103c257600080fd5b506101b666470de4df82000081565b6101e4610a8d565b3480156103e557600080fd5b506101b66202a30081565b3480156103fc57600080fd5b506101e461040b366004611557565b610b0a565b34801561041c57600080fd5b5061043061042b366004611623565b610b83565b6040516101989291906116c7565b34801561044a57600080fd5b506101847f000000000000000000000000000000000000000000000000000000000000000081565b6000807f00000000000000000000000000000000000000000000000000000000000000006001600160a01b031663feaf968c6040518163ffffffff1660e01b815260040160a060405180830381865afa1580156104d3573d6000803e3d6000fd5b505050506040513d601f19601f820116820180604052508101906104f79190611708565b509195945050505050565b61050a610f31565b60405163040b850f60e31b81526001600160a01b038381166004830152602482018390527f0000000000000000000000000000000000000000000000000000000000000000169063205c287890604401600060405180830381600087803b15801561057457600080fd5b505af1158015610588573d6000803e3d6000fd5b505050505050565b6000807f00000000000000000000000000000000000000000000000000000000000000006001600160a01b031663feaf968c6040518163ffffffff1660e01b815260040160a060405180830381865afa1580156104d3573d6000803e3d6000fd5b336000908152600260205260408120805434929061061090849061176e565b909155505060405134815233907f7c717985ac273e663b7f3050f5b15a4388ff6ed952338954f650e2093e13937f906020015b60405180910390a2565b610655610f31565b61065f6000610f8b565b565b60008061066c610590565b90506000610678610472565b9050811580610685575080155b156106e65760405162461bcd60e51b815260206004820152602660248201527f4d7945726332305061796d61737465723a20696e76616c6964206f7261636c6560448201526520707269636560d01b60648201526084015b60405180910390fd5b6106f8670de0b6b3a764000083611781565b670de0b6b3a764000061070b8387611781565b6107159190611781565b61071f9190611798565b949350505050565b336001600160a01b037f0000000000000000000000000000000000000000000000000000000000000000161461076f5760405162461bcd60e51b81526004016106dd906117ba565b60008061077e8486018661152b565b90925090506000866002811115610797576107976117fc565b03610588576107d16001600160a01b037f000000000000000000000000000000000000000000000000000000000000000016833084610fdb565b60408051828152602081018590526001600160a01b038416917fffd0b669a1dd6cd4e81d5fa668229de53f1912281efd7c8374dfc2208164962f910160405180910390a2505050505050565b3360009081526002602052604090205466470de4df820000111561088f5760405162461bcd60e51b8152602060048201526024808201527f4d7945726332305061796d61737465723a20696e73756666696369656e74207360448201526374616b6560e01b60648201526084016106dd565b3360008181526003602090815260408083206202a30090819055600490925290912042908190557ffa9b3c14cc825c412c9ed81b3ba365a5b459439403f18829e572ed53a4180f0a916108e19161176e565b604051908152602001610643565b33600090815260036020908152604080832054600490925290912054610915919061176e565b4210156109755760405162461bcd60e51b815260206004820152602860248201527f4d7945726332305061796d61737465723a207374616b65206e6f7420796574206044820152671d5b9b1bd8dad95960c21b60648201526084016106dd565b336000908152600260209081526040808320805490849055600383528184208490556004909252808320839055519091906001600160a01b0384169083908381818185875af1925050503d80600081146109eb576040519150601f19603f3d011682016040523d82523d6000602084013e6109f0565b606091505b5050905080610a535760405162461bcd60e51b815260206004820152602960248201527f4d7945726332305061796d61737465723a207374616b65207769746864726177604482015268185b0819985a5b195960ba1b60648201526084016106dd565b60405182815233907f8108595eb6bad3acefa9da467d90cc2217686d5c5ac85460f8b7849c840645fc9060200160405180910390a2505050565b60405163b760faf960e01b81523060048201527f00000000000000000000000000000000000000000000000000000000000000006001600160a01b03169063b760faf99034906024016000604051808303818588803b158015610aef57600080fd5b505af1158015610b03573d6000803e3d6000fd5b5050505050565b610b12610f31565b6001600160a01b038116610b775760405162461bcd60e51b815260206004820152602660248201527f4f776e61626c653a206e6577206f776e657220697320746865207a65726f206160448201526564647265737360d01b60648201526084016106dd565b610b8081610f8b565b50565b60606000336001600160a01b037f00000000000000000000000000000000000000000000000000000000000000001614610bcf5760405162461bcd60e51b81526004016106dd906117ba565b6000808080610be26101208a018a611812565b610bf0916014908290611859565b810190610bfd9190611899565b93509350935093508160001480610c1357504282115b610c5f5760405162461bcd60e51b815260206004820152601960248201527f4d7945726332305061796d61737465723a20657870697265640000000000000060448201526064016106dd565b82841115610cbf5760405162461bcd60e51b815260206004820152602760248201527f4d7945726332305061796d61737465723a20746f6b656e20616d6f756e7420746044820152660dede40d0d2ced60cb1b60648201526084016106dd565b6000610cce60208b018b611557565b60405160609190911b6bffffffffffffffffffffffff191660208201526034810186905260548101859052607481018490526094016040516020818303038152906040528051906020012090506000610d5e83610d58847f19457468657265756d205369676e6564204d6573736167653a0a3332000000006000908152601c91909152603c902090565b9061103b565b9050610d726000546001600160a01b031690565b6001600160a01b0316816001600160a01b031614610dde5760405162461bcd60e51b815260206004820152602360248201527f4d7945726332305061796d61737465723a20696e76616c6964207369676e617460448201526275726560e81b60648201526084016106dd565b856001600160a01b037f0000000000000000000000000000000000000000000000000000000000000000166370a08231610e1b60208f018f611557565b6040516001600160e01b031960e084901b1681526001600160a01b039091166004820152602401602060405180830381865afa158015610e5f573d6000803e3d6000fd5b505050506040513d601f19601f82011682018060405250810190610e839190611967565b1015610ee65760405162461bcd60e51b815260206004820152602c60248201527f4d7945726332305061796d61737465723a20696e73756666696369656e74207460448201526b6f6b656e2062616c616e636560a01b60648201526084016106dd565b610ef360208c018c611557565b604080516001600160a01b039092166020830152810187905260600160408051601f198184030181529190529b60009b509950505050505050505050565b6000546001600160a01b0316331461065f5760405162461bcd60e51b815260206004820181905260248201527f4f776e61626c653a2063616c6c6572206973206e6f7420746865206f776e657260448201526064016106dd565b600080546001600160a01b038381166001600160a01b0319831681178455604051919092169283917f8be0079c531659141344cd1fd0a4f28419497f9722a3daafe3b4186f6b6457e09190a35050565b604080516001600160a01b0385811660248301528416604482015260648082018490528251808303909101815260849091019091526020810180516001600160e01b03166323b872dd60e01b179052611035908590611061565b50505050565b600080600061104a858561113b565b9150915061105781611180565b5090505b92915050565b60006110b6826040518060400160405280602081526020017f5361666545524332303a206c6f772d6c6576656c2063616c6c206661696c6564815250856001600160a01b03166112ca9092919063ffffffff16565b90508051600014806110d75750808060200190518101906110d79190611980565b6111365760405162461bcd60e51b815260206004820152602a60248201527f5361666545524332303a204552433230206f7065726174696f6e20646964206e6044820152691bdd081cdd58d8d9595960b21b60648201526084016106dd565b505050565b60008082516041036111715760208301516040840151606085015160001a611165878285856112d9565b94509450505050611179565b506000905060025b9250929050565b6000816004811115611194576111946117fc565b0361119c5750565b60018160048111156111b0576111b06117fc565b036111fd5760405162461bcd60e51b815260206004820152601860248201527f45434453413a20696e76616c6964207369676e6174757265000000000000000060448201526064016106dd565b6002816004811115611211576112116117fc565b0361125e5760405162461bcd60e51b815260206004820152601f60248201527f45434453413a20696e76616c6964207369676e6174757265206c656e6774680060448201526064016106dd565b6003816004811115611272576112726117fc565b03610b805760405162461bcd60e51b815260206004820152602260248201527f45434453413a20696e76616c6964207369676e6174757265202773272076616c604482015261756560f01b60648201526084016106dd565b606061071f848460008561139d565b6000807f7fffffffffffffffffffffffffffffff5d576e7357a4501ddfe92f46681b20a08311156113105750600090506003611394565b6040805160008082526020820180845289905260ff881692820192909252606081018690526080810185905260019060a0016020604051602081039080840390855afa158015611364573d6000803e3d6000fd5b5050604051601f1901519150506001600160a01b03811661138d57600060019250925050611394565b9150600090505b94509492505050565b6060824710156113fe5760405162461bcd60e51b815260206004820152602660248201527f416464726573733a20696e73756666696369656e742062616c616e636520666f6044820152651c8818d85b1b60d21b60648201526084016106dd565b600080866001600160a01b0316858760405161141a91906119a2565b60006040518083038185875af1925050503d8060008114611457576040519150601f19603f3d011682016040523d82523d6000602084013e61145c565b606091505b509150915061146d87838387611478565b979650505050505050565b606083156114e75782516000036114e0576001600160a01b0385163b6114e05760405162461bcd60e51b815260206004820152601d60248201527f416464726573733a2063616c6c20746f206e6f6e2d636f6e747261637400000060448201526064016106dd565b508161071f565b61071f83838151156114fc5781518083602001fd5b8060405162461bcd60e51b81526004016106dd91906119be565b6001600160a01b0381168114610b8057600080fd5b6000806040838503121561153e57600080fd5b823561154981611516565b946020939093013593505050565b60006020828403121561156957600080fd5b813561157481611516565b9392505050565b60006020828403121561158d57600080fd5b5035919050565b600080600080606085870312156115aa57600080fd5b8435600381106115b957600080fd5b9350602085013567ffffffffffffffff808211156115d657600080fd5b818701915087601f8301126115ea57600080fd5b8135818111156115f957600080fd5b88602082850101111561160b57600080fd5b95986020929092019750949560400135945092505050565b60008060006060848603121561163857600080fd5b833567ffffffffffffffff81111561164f57600080fd5b8401610160818703121561166257600080fd5b95602085013595506040909401359392505050565b60005b8381101561169257818101518382015260200161167a565b50506000910152565b600081518084526116b3816020860160208601611677565b601f01601f19169290920160200192915050565b6040815260006116da604083018561169b565b90508260208301529392505050565b805169ffffffffffffffffffff8116811461170357600080fd5b919050565b600080600080600060a0868803121561172057600080fd5b611729866116e9565b945060208601519350604086015192506060860151915061174c608087016116e9565b90509295509295909350565b634e487b7160e01b600052601160045260246000fd5b8082018082111561105b5761105b611758565b808202811582820484141761105b5761105b611758565b6000826117b557634e487b7160e01b600052601260045260246000fd5b500490565b60208082526022908201527f4d7945726332305061796d61737465723a206f6e6c7920656e74727920706f696040820152611b9d60f21b606082015260800190565b634e487b7160e01b600052602160045260246000fd5b6000808335601e1984360301811261182957600080fd5b83018035915067ffffffffffffffff82111561184457600080fd5b60200191503681900382131561117957600080fd5b6000808585111561186957600080fd5b8386111561187657600080fd5b5050820193919092039150565b634e487b7160e01b600052604160045260246000fd5b600080600080608085870312156118af57600080fd5b843593506020850135925060408501359150606085013567ffffffffffffffff808211156118dc57600080fd5b818701915087601f8301126118f057600080fd5b81358181111561190257611902611883565b604051601f8201601f19908116603f0116810190838211818310171561192a5761192a611883565b816040528281528a602084870101111561194357600080fd5b82602086016020830137600060208483010152809550505050505092959194509250565b60006020828403121561197957600080fd5b5051919050565b60006020828403121561199257600080fd5b8151801515811461157457600080fd5b600082516119b4818460208701611677565b9190910192915050565b602081526000611574602083018461169b56fea26469706673582212206ac9743fbc2423efebd522e6ae5cdb6214a97a4270b5071f534e09e7c1cec08864736f6c63430008130033","linkReferences":{}},"methodIdentifiers":{"MIN_STAKE()":"cb1c2b5c","PRECISION()":"aaf5eb68","UNSTAKE_DELAY()":"e35e5d84","addStake()":"5a627dbc","calculateTokenAmount(uint256)":"a24bcf46","deposit()":"d0e30db0","entryPoint()":"b0d691fe","getNativePrice()":"17430c9e","getTokenPrice()":"4b94f50e","lastUnstakeTime(address)":"331e03a8","nativeOracle()":"127fec13","owner()":"8da5cb5b","postOp(uint8,bytes,uint256)":"a9a23409","renounceOwnership()":"715018a6","stake(address)":"26476204","token()":"fc0c546a","tokenOracle()":"6c5ec25c","transferOwnership(address)":"f2fde38b","unlockStake()":"bb9fe6bf","unstakeDelaySec(address)":"c47e22c7","validatePaymasterUserOp((address,uint256,bytes,bytes,uint256,uint256,uint256,uint256,uint256,bytes,bytes),bytes32,uint256)":"f465c77e","withdrawStake(address)":"c23a5cea","withdrawTo(address,uint256)":"205c2878"},"id":3}