{"abi":[{"type":"constructor","inputs":[{"name":"_entryPoint","type":"address","internalType":"address"}],"stateMutability":"nonpayable"},{"type":"function","name":"accountImplementation","inputs":[],"outputs":[{"name":"","type":"address","internalType":"address"}],"stateMutability":"view"},{"type":"function","name":"createAccount","inputs":[{"name":"owner","type":"address","internalType":"address"}],"outputs":[{"name":"ret","type":"address","internalType":"address"}],"stateMutability":"nonpayable"},{"type":"function","name":"getAddress","inputs":[{"name":"owner","type":"address","internalType":"address"}],"outputs":[{"name":"","type":"address","internalType":"address"}],"stateMutability":"view"},{"type":"function","name":"owner","inputs":[],"outputs":[{"name":"","type":"address","internalType":"address"}],"stateMutability":"view"},{"type":"function","name":"renounceOwnership","inputs":[],"outputs":[],"stateMutability":"nonpayable"},{"type":"function","name":"transferOwnership","inputs":[{"name":"newOwner","type":"address","internalType":"address"}],"outputs":[],"stateMutability":"nonpayable"},{"type":"event","name":"AccountCreated","inputs":[{"name":"account","type":"address","indexed":true,"internalType":"address"},{"name":"owner","type":"address","indexed":true,"internalType":"address"}],"anonymous":false},{"type":"event","name":"OwnershipTransferred","inputs":[{"name":"previousOwner","type":"address","indexed":true,"internalType":"address"},{"name":"newOwner","type":"address","indexed":true,"internalType":"address"}],"anonymous":false}],"bytecode":{"object":"0x60a060405234801561001057600080fd5b506040516121dd3803806121dd83398101604081905261002f916100ea565b6100383361008d565b6100413361008d565b8060405161004e906100dd565b6001600160a01b039091168152602001604051809103906000f08015801561007a573d6000803e3d6000fd5b506001600160a01b03166080525061011a565b600080546001600160a01b038381166001600160a01b0319831681178455604051919092169283917f8be0079c531659141344cd1fd0a4f28419497f9722a3daafe3b4186f6b6457e09190a35050565b611bdc8061060183390190565b6000602082840312156100fc57600080fd5b81516001600160a01b038116811461011357600080fd5b9392505050565b6080516104bf61014260003960008181606c01528181610140015261022601526104bf6000f3fe608060405234801561001057600080fd5b50600436106100625760003560e01c806311464fbe14610067578063715018a6146100aa5780638da5cb5b146100b45780639859387b146100c5578063ae22c57d146100d8578063f2fde38b146100eb575b600080fd5b61008e7f000000000000000000000000000000000000000000000000000000000000000081565b6040516001600160a01b03909116815260200160405180910390f35b6100b26100fe565b005b6000546001600160a01b031661008e565b61008e6100d3366004610460565b610112565b61008e6100e6366004610460565b610205565b6100b26100f9366004610460565b610295565b610106610313565b610110600061036d565b565b60008061011e83610205565b9050803b801561012f575092915050565b6001600160a01b03841660006101657f0000000000000000000000000000000000000000000000000000000000000000836103bd565b60405163189acdbd60e31b81526001600160a01b0388811660048301529192509082169063c4d66de890602401600060405180830381600087803b1580156101ac57600080fd5b505af11580156101c0573d6000803e3d6000fd5b50506040516001600160a01b03808a169350841691507fac631f3001b55ea1509cf3d7e74898f85392a61a76e8149181ae1259622dabc890600090a395945050505050565b6040513060388201526f5af43d82803e903d91602b57fd5bf3ff60248201527f00000000000000000000000000000000000000000000000000000000000000006014820152733d602d80600a3d3981f3363d3d373d3d3d363d7381526001600160a01b038216605882018190526037600c83012060788301526055604390920191909120600091905b9392505050565b61029d610313565b6001600160a01b0381166103075760405162461bcd60e51b815260206004820152602660248201527f4f776e61626c653a206e6577206f776e657220697320746865207a65726f206160448201526564647265737360d01b60648201526084015b60405180910390fd5b6103108161036d565b50565b6000546001600160a01b031633146101105760405162461bcd60e51b815260206004820181905260248201527f4f776e61626c653a2063616c6c6572206973206e6f7420746865206f776e657260448201526064016102fe565b600080546001600160a01b038381166001600160a01b0319831681178455604051919092169283917f8be0079c531659141344cd1fd0a4f28419497f9722a3daafe3b4186f6b6457e09190a35050565b6000763d602d80600a3d3981f3363d3d373d3d3d363d730000008360601b60e81c176000526e5af43d82803e903d91602b57fd5bf38360781b1760205281603760096000f590506001600160a01b03811661045a5760405162461bcd60e51b815260206004820152601760248201527f455243313136373a2063726561746532206661696c656400000000000000000060448201526064016102fe565b92915050565b60006020828403121561047257600080fd5b81356001600160a01b038116811461028e57600080fdfea26469706673582212203eb5e55c3bad0d94d419a47b82ca1c020ba301265da2f836a55b463ba5d7914364736f6c6343000813003360c0604052306080523480156200001557600080fd5b5060405162001bdc38038062001bdc833981016040819052620000389162000188565b62000043336200006c565b6001600160a01b03811660a0526200005a620000c7565b62000065336200006c565b50620001ba565b600080546001600160a01b038381166201000081810262010000600160b01b0319851617855560405193049190911692909183917f8be0079c531659141344cd1fd0a4f28419497f9722a3daafe3b4186f6b6457e091a35050565b600054610100900460ff1615620001345760405162461bcd60e51b815260206004820152602760248201527f496e697469616c697a61626c653a20636f6e747261637420697320696e697469604482015266616c697a696e6760c81b606482015260840160405180910390fd5b60005460ff9081161462000186576000805460ff191660ff9081179091556040519081527f7f26b83ff96e1f2b6a682f133852f6798a09c465da95921460cefb38474024989060200160405180910390a15b565b6000602082840312156200019b57600080fd5b81516001600160a01b0381168114620001b357600080fd5b9392505050565b60805160a0516119af6200022d6000396000818161020601528181610392015281816104cf015281816106bf015281816107550152818161094f015281816109eb0152610b380152600081816102a7015281816102f0015281816107b7015281816107f7015261088a01526119af6000f3fe6080604052600436106100dd5760003560e01c8063715018a61161007f578063b61d27f611610059578063b61d27f614610228578063c399ec8814610248578063c4d66de81461025d578063f2fde38b1461027d57600080fd5b8063715018a6146101a75780638da5cb5b146101bc578063b0d691fe146101f457600080fd5b80634a58db19116100bb5780634a58db19146101575780634d44560d1461015f5780634f1ef2861461017f57806352d1902d1461019257600080fd5b80633659cfe6146100e25780633a871cdd1461010457806347e1da2a14610137575b600080fd5b3480156100ee57600080fd5b506101026100fd36600461145e565b61029d565b005b34801561011057600080fd5b5061012461011f36600461147b565b610385565b6040519081526020015b60405180910390f35b34801561014357600080fd5b50610102610152366004611514565b6104c4565b6101026106aa565b34801561016b57600080fd5b5061010261017a3660046115ae565b610727565b61010261018d3660046115f0565b6107ad565b34801561019e57600080fd5b5061012461087d565b3480156101b357600080fd5b50610102610930565b3480156101c857600080fd5b506000546201000090046001600160a01b03165b6040516001600160a01b03909116815260200161012e565b34801561020057600080fd5b506101dc7f000000000000000000000000000000000000000000000000000000000000000081565b34801561023457600080fd5b506101026102433660046116b4565b610944565b34801561025457600080fd5b506101246109d3565b34801561026957600080fd5b5061010261027836600461145e565b610a63565b34801561028957600080fd5b5061010261029836600461145e565b610bd5565b6001600160a01b037f00000000000000000000000000000000000000000000000000000000000000001630036102ee5760405162461bcd60e51b81526004016102e59061173d565b60405180910390fd5b7f00000000000000000000000000000000000000000000000000000000000000006001600160a01b0316610337600080516020611933833981519152546001600160a01b031690565b6001600160a01b03161461035d5760405162461bcd60e51b81526004016102e590611789565b61036681610c4b565b6040805160008082526020820190925261038291839190610cba565b50565b6000336001600160a01b037f000000000000000000000000000000000000000000000000000000000000000016146103cf5760405162461bcd60e51b81526004016102e5906117d5565b60006104286103e261014087018761180c565b8080601f0160208091040260200160405190810160405280939291908181526020018383808284376000920191909152506104229250889150610e2a9050565b90610e5d565b9050806001600160a01b031661044d6000546001600160a01b03620100009091041690565b6001600160a01b0316146104655760019150506104bd565b82156104b757604051600090339085908381818185875af1925050503d80600081146104ad576040519150601f19603f3d011682016040523d82523d6000602084013e6104b2565b606091505b505050505b60009150505b9392505050565b336001600160a01b037f0000000000000000000000000000000000000000000000000000000000000000161461050c5760405162461bcd60e51b81526004016102e5906117d5565b8481148015610522575082158061052257508281145b6105785760405162461bcd60e51b815260206004820152602160248201527f4c696768744163636f756e743a2077726f6e67206172726179206c656e6774686044820152607360f81b60648201526084016102e5565b600083900361062e5760005b85811015610628576106168787838181106105a1576105a1611853565b90506020020160208101906105b6919061145e565b60008585858181106105ca576105ca611853565b90506020028101906105dc919061180c565b8080601f016020809104026020016040519081016040528093929190818152602001838380828437600092019190915250610e8192505050565b8061062081611869565b915050610584565b506106a2565b60005b858110156106a05761068e87878381811061064e5761064e611853565b9050602002016020810190610663919061145e565b86868481811061067557610675611853565b905060200201358585858181106105ca576105ca611853565b8061069881611869565b915050610631565b505b505050505050565b60405163b760faf960e01b81523060048201527f00000000000000000000000000000000000000000000000000000000000000006001600160a01b03169063b760faf99034906024016000604051808303818588803b15801561070c57600080fd5b505af1158015610720573d6000803e3d6000fd5b5050505050565b61072f610ef1565b60405163040b850f60e31b81526001600160a01b038381166004830152602482018390527f0000000000000000000000000000000000000000000000000000000000000000169063205c287890604401600060405180830381600087803b15801561079957600080fd5b505af11580156106a2573d6000803e3d6000fd5b6001600160a01b037f00000000000000000000000000000000000000000000000000000000000000001630036107f55760405162461bcd60e51b81526004016102e59061173d565b7f00000000000000000000000000000000000000000000000000000000000000006001600160a01b031661083e600080516020611933833981519152546001600160a01b031690565b6001600160a01b0316146108645760405162461bcd60e51b81526004016102e590611789565b61086d82610c4b565b61087982826001610cba565b5050565b6000306001600160a01b037f0000000000000000000000000000000000000000000000000000000000000000161461091d5760405162461bcd60e51b815260206004820152603860248201527f555550535570677261646561626c653a206d757374206e6f742062652063616c60448201527f6c6564207468726f7567682064656c656761746563616c6c000000000000000060648201526084016102e5565b5060008051602061193383398151915290565b610938610ef1565b6109426000610f52565b565b336001600160a01b037f0000000000000000000000000000000000000000000000000000000000000000161461098c5760405162461bcd60e51b81526004016102e5906117d5565b6109cd848484848080601f016020809104026020016040519081016040528093929190818152602001838380828437600092019190915250610e8192505050565b50505050565b6040516370a0823160e01b81523060048201526000907f00000000000000000000000000000000000000000000000000000000000000006001600160a01b0316906370a0823190602401602060405180830381865afa158015610a3a573d6000803e3d6000fd5b505050506040513d601f19601f82011682018060405250810190610a5e9190611890565b905090565b600054610100900460ff1615808015610a835750600054600160ff909116105b80610a9d5750303b158015610a9d575060005460ff166001145b610b005760405162461bcd60e51b815260206004820152602e60248201527f496e697469616c697a61626c653a20636f6e747261637420697320616c72656160448201526d191e481a5b9a5d1a585b1a5e995960921b60648201526084016102e5565b6000805460ff191660011790558015610b23576000805461ff0019166101001790555b610b2c82610f52565b816001600160a01b03167f00000000000000000000000000000000000000000000000000000000000000006001600160a01b03167fec6a23b49d2c363d250c9dda15610e835d428207d15ddb36a6c230e37371ddf160405160405180910390a38015610879576000805461ff0019169055604051600181527f7f26b83ff96e1f2b6a682f133852f6798a09c465da95921460cefb38474024989060200160405180910390a15050565b610bdd610ef1565b6001600160a01b038116610c425760405162461bcd60e51b815260206004820152602660248201527f4f776e61626c653a206e6577206f776e657220697320746865207a65726f206160448201526564647265737360d01b60648201526084016102e5565b61038281610f52565b6000546001600160a01b03620100009091041633146103825760405162461bcd60e51b815260206004820152602560248201527f4c696768744163636f756e743a2063616c6c6572206973206e6f74207468652060448201526437bbb732b960d91b60648201526084016102e5565b7f4910fdfa16fed3260ed0e7147f7cc6da11a60208b5b9406d12a635614ffd91435460ff1615610cf257610ced83610fad565b505050565b826001600160a01b03166352d1902d6040518163ffffffff1660e01b8152600401602060405180830381865afa925050508015610d4c575060408051601f3d908101601f19168201909252610d4991810190611890565b60015b610daf5760405162461bcd60e51b815260206004820152602e60248201527f45524331393637557067726164653a206e657720696d706c656d656e7461746960448201526d6f6e206973206e6f74205555505360901b60648201526084016102e5565b6000805160206119338339815191528114610e1e5760405162461bcd60e51b815260206004820152602960248201527f45524331393637557067726164653a20756e737570706f727465642070726f786044820152681a58589b195555525160ba1b60648201526084016102e5565b50610ced838383611049565b7f19457468657265756d205369676e6564204d6573736167653a0a3332000000006000908152601c91909152603c902090565b6000806000610e6c858561106e565b91509150610e79816110b3565b509392505050565b600080846001600160a01b03168484604051610e9d91906118cd565b60006040518083038185875af1925050503d8060008114610eda576040519150601f19603f3d011682016040523d82523d6000602084013e610edf565b606091505b50915091508161072057805160208201fd5b6000546001600160a01b03620100009091041633146109425760405162461bcd60e51b815260206004820181905260248201527f4f776e61626c653a2063616c6c6572206973206e6f7420746865206f776e657260448201526064016102e5565b600080546001600160a01b038381166201000081810262010000600160b01b0319851617855560405193049190911692909183917f8be0079c531659141344cd1fd0a4f28419497f9722a3daafe3b4186f6b6457e091a35050565b6001600160a01b0381163b61101a5760405162461bcd60e51b815260206004820152602d60248201527f455243313936373a206e657720696d706c656d656e746174696f6e206973206e60448201526c1bdd08184818dbdb9d1c9858dd609a1b60648201526084016102e5565b60008051602061193383398151915280546001600160a01b0319166001600160a01b0392909216919091179055565b611052836111fd565b60008251118061105f5750805b15610ced576109cd838361123d565b60008082516041036110a45760208301516040840151606085015160001a61109887828585611262565b945094505050506110ac565b506000905060025b9250929050565b60008160048111156110c7576110c76118e9565b036110cf5750565b60018160048111156110e3576110e36118e9565b036111305760405162461bcd60e51b815260206004820152601860248201527f45434453413a20696e76616c6964207369676e6174757265000000000000000060448201526064016102e5565b6002816004811115611144576111446118e9565b036111915760405162461bcd60e51b815260206004820152601f60248201527f45434453413a20696e76616c6964207369676e6174757265206c656e6774680060448201526064016102e5565b60038160048111156111a5576111a56118e9565b036103825760405162461bcd60e51b815260206004820152602260248201527f45434453413a20696e76616c6964207369676e6174757265202773272076616c604482015261756560f01b60648201526084016102e5565b61120681610fad565b6040516001600160a01b038216907fbc7cd75a20ee27fd9adebab32041f755214dbc6bffa90cc0225b39da2e5c2d3b90600090a250565b60606104bd838360405180606001604052806027815260200161195360279139611326565b6000807f7fffffffffffffffffffffffffffffff5d576e7357a4501ddfe92f46681b20a0831115611299575060009050600361131d565b6040805160008082526020820180845289905260ff881692820192909252606081018690526080810185905260019060a0016020604051602081039080840390855afa1580156112ed573d6000803e3d6000fd5b5050604051601f1901519150506001600160a01b0381166113165760006001925092505061131d565b9150600090505b94509492505050565b6060600080856001600160a01b03168560405161134391906118cd565b600060405180830381855af49150503d806000811461137e576040519150601f19603f3d011682016040523d82523d6000602084013e611383565b606091505b50915091506113948683838761139e565b9695505050505050565b6060831561140d578251600003611406576001600160a01b0385163b6114065760405162461bcd60e51b815260206004820152601d60248201527f416464726573733a2063616c6c20746f206e6f6e2d636f6e747261637400000060448201526064016102e5565b5081611417565b611417838361141f565b949350505050565b81511561142f5781518083602001fd5b8060405162461bcd60e51b81526004016102e591906118ff565b6001600160a01b038116811461038257600080fd5b60006020828403121561147057600080fd5b81356104bd81611449565b60008060006060848603121561149057600080fd5b833567ffffffffffffffff8111156114a757600080fd5b840161016081870312156114ba57600080fd5b95602085013595506040909401359392505050565b60008083601f8401126114e157600080fd5b50813567ffffffffffffffff8111156114f957600080fd5b6020830191508360208260051b85010111156110ac57600080fd5b6000806000806000806060878903121561152d57600080fd5b863567ffffffffffffffff8082111561154557600080fd5b6115518a838b016114cf565b9098509650602089013591508082111561156a57600080fd5b6115768a838b016114cf565b9096509450604089013591508082111561158f57600080fd5b5061159c89828a016114cf565b979a9699509497509295939492505050565b600080604083850312156115c157600080fd5b82356115cc81611449565b946020939093013593505050565b634e487b7160e01b600052604160045260246000fd5b6000806040838503121561160357600080fd5b823561160e81611449565b9150602083013567ffffffffffffffff8082111561162b57600080fd5b818501915085601f83011261163f57600080fd5b813581811115611651576116516115da565b604051601f8201601f19908116603f01168101908382118183101715611679576116796115da565b8160405282815288602084870101111561169257600080fd5b8260208601602083013760006020848301015280955050505050509250929050565b600080600080606085870312156116ca57600080fd5b84356116d581611449565b935060208501359250604085013567ffffffffffffffff808211156116f957600080fd5b818701915087601f83011261170d57600080fd5b81358181111561171c57600080fd5b88602082850101111561172e57600080fd5b95989497505060200194505050565b6020808252602c908201527f46756e6374696f6e206d7573742062652063616c6c6564207468726f7567682060408201526b19195b1959d85d1958d85b1b60a21b606082015260800190565b6020808252602c908201527f46756e6374696f6e206d7573742062652063616c6c6564207468726f7567682060408201526b6163746976652070726f787960a01b606082015260800190565b6020808252601e908201527f4c696768744163636f756e743a206f6e6c7920656e74727920706f696e740000604082015260600190565b6000808335601e1984360301811261182357600080fd5b83018035915067ffffffffffffffff82111561183e57600080fd5b6020019150368190038213156110ac57600080fd5b634e487b7160e01b600052603260045260246000fd5b60006001820161188957634e487b7160e01b600052601160045260246000fd5b5060010190565b6000602082840312156118a257600080fd5b5051919050565b60005b838110156118c45781810151838201526020016118ac565b50506000910152565b600082516118df8184602087016118a9565b9190910192915050565b634e487b7160e01b600052602160045260246000fd5b602081526000825180602084015261191e8160408501602087016118a9565b601f01601f1916919091016040019291505056fe360894a13ba1a3210667c828492db98dca3e2076cc3735a920a3ca505d382bbc416464726573733a206c6f772d6c6576656c2064656c65676174652063616c6c206661696c6564a2646970667358221220b30ae04c467fbe94862804ad9e030d213fa1a7681174da3fd840674bd98a57ad64736f6c63430008130033","linkReferences":{}},"methodIdentifiers":{"accountImplementation()":"11464fbe","createAccount(address)":"9859387b","getAddress(address)":"ae22c57d","owner()":"8da5cb5b","renounceOwnership()":"715018a6","transferOwnership(address)":"f2fde38b"},"id":1}